:10061600E4FDFCC3ED9FEC9E50070DBD00010C8070
:01062600F2E1
:0106270022B0
:10052700E4FBFAC293C292FEEFA2E39291D293C286
:100537009325E0FF0EBE04F0E4FFD293C2930FBFF2
:1005470006F8D2927F197E00120616C2921206167C
:10055700E4FDD290C293EB25E0FBEA33FA30900535
:0F0567000BBB00010AD2930DBD0AE7AE02AF0332
:010576002262
:1005D500E4FDEDC39FEE6480F87480985009E4FC57
:0705E5000CBCFDFC0D80EBD6
:0105EC0022EC
:10060200C287D286D28500000000E5A0339200C2E4
:0306120085A200BE
:0106150022C2
:10059D0012060240FBC287C286C28500008FA000F2
:0C05AD00000000D28500000000C2852282
:07000300EF4480FF02059DA0
:1005B90012060240FBD287C286C28500008FA000C6
:0C05C900000000D28500000000C2852266
:100577007F3812059D7F017E001205D57F0C12057D
:100587009D7F011205D57F0612059D7F011205D5B6
:0605970012059D0205D5CE
:0404B100AB07AA06E5
:1004B500E4F51F751E73751D75751C69751B7375C0
:1004C5001A6C751965751843751720FC7D0A12039A
:1004D5006BED2430F51675152E7C007D0AAF03AE45
:1004E5000212036B7C007D0A12036BED2430F514B8
:1004F500AE02AF037C007D6412036BEF2430F5136D
:100505007F40120003E4FBFA74132BF8E6FF601139
:100515001205B97F017E001205D50BBB00010A80CB
:01052500E7EE
:0105260022B2
:0C06280054656D70657261747572650038
:100404001206341205777F0A7E001205D57F011289
:10041400059DE4FF120003E4F508E508900628931F
:10042400FF600E1205B97F017E001205D505088014
:10043400E9E4FF1205278E098F0AAC09AD0AEC1214
:1004440002B17B527AB8799E7840120106E4FBFA35
:100454007980784412020F8F128E118D108C0F7FC9
:10046400007E207D207C44AB12AA11A910A80F1293
:1004740001067B887AEB797978C11200158F0E8E8C
:100484000D8D0C8C0B1202EA1204B1E4FBFA7920F4
:100494007841AF0EAE0DAD0CAC0B12020F1202EA96
:0D04A4001205ED7FC87E001205D50204117F
:1005ED00C3EF941EEE648094804005D2A9D28C2274
:0505FD00C2A9C28C221E
:0C063400E4F589758CE1758A18D2AF22BC
:03000B0002064C9E
:09064C00758CE1758A18B2B63212
:10000E00020356E86480F8E933E83360110460F0C7
:10001E00ED33EC337009E8FCE9FDEAFEEBFF220458
:10002E0060DED3EB9FEA9EE99DE8C2E78CF0C2F753
:10003E0095F0400CE8CCF8E9CDF9EACEFAEBCFFB1F
:10004E0012032185D0F05804700320D5B3E8047054
:10005E00075002B2D502036092D5EC0460F7E4CCEF
:10006E00C0E0C398F8603B94186008400DD0E0FBE8
:10007E00020338E4FBFAC9FC8028E830E406E4C940
:10008E00FBE4CAFCE830E305E4C9CACBFCE854073C
:10009E006010F8C3E913F9EA13FAEB13FBEC13FC47
:1000AE00D8F130F52FC3E49CFCEF9BFFEE9AFEEDEA
:1000BE0099FDD0E0FBEF4E4D4C701222DB03020394
:1000CE005DEC2CFCEF33FFEE33FEED33FDED30E750
:1000DE00EB020338EF2BFFEE3AFEED39FDD0E0FBDD
:1000EE0050130BBB0003020360ED13FDEE13FEEF86
:0800FE0013FFEC13FC020338B0
:10010600EC4D6011E8497017ED33EC3304600DE4F3
:10011600FCFFFEFD22E933E8330470F802035612B1
:10012600032158046009E4CC2481500628500902B2
:10013600036028400302035DC0E0EB4A7044B980C7
:1001460006D0E0FB02034CEF4E701CBD8008EBFFAF
:10015600EAFEE9FD80EBE98DF0A4FEE5F00201EF91
:10016600E9CDF9EAFEEBFFEF89F0A4FCE5F0CE89D4
:10017600F0A42EFFE435F0CD89F0A42DFEE435F091
:100186008067EF4E7005BD80D780C3EF8BF0A4ACBF
:10019600F0EE8BF0A42CFCE435F0F8EF8AF0A42CFA
:1001A600E5F038FCE433CB8DF0A42CFCE5F03BF80D
:1001B600EE8AF0A42CFCE5F038F8E433CF89F0A4FD
:1001C6002CFCE5F038CF3400CE89F0A42FFFE5F003
:1001D6003EFEE433C98DF0A42EFEE5F039CD8AF05B
:1001E600A42FFFE5F03EFEE43DFD33D0E0FB5007D3
:1001F6000BBB000F020360EC2CFCEF33FFEE33FE6B
:06020600ED33FD02033898
:10020C00020360EC5D046005E859047003020356B8
:10021C00120321580460F6EC4860F2EC7004FDFE09
:10022C00FF22C860DB2481C85009C39860025006C5
:10023C0002035D9850CAF582E9294B4A7005AB82DE
:10024C0002034C75F0007C1A7880C3EF9BEE9AED9C
:10025C0099400DC3EF9BFFEE9AFEED99FDE842F03D
:10026C00DC23ACF0D0E0FFD0E0FED0E0FDAB822090
:10027C00E7101BEB60BAEC2CFCEF33FFEE33FEED1A
:10028C0033FD020338E803F830E705C0F075F000E1
:10029C00EF2FFFEE33FEED33FD40B830E7C280AAFE
:1002AC0075F020800E75F010800575F0087D007ECD
:1002BC00007F003392D530D5031203A1EC334010EC
:1002CC00EF33FFEE33FEED33FDEC33FCD5F0ED22D6
:0E02DC00E5F0247EA2D513CC92E7CDCEFF2212
:1002EA00EDD2E7CD33EC3392D524814006E4FFFE0C
:1002FA00FDFC22FCE4CFCECDCC24E0501174FF806B
:10030A00EDC3CC13CCCD13CDCE13CECF13CF047007
:07031A00F030D5DE0203A163
:10032100E9D2E7C933E833F892D5EDD2E7CD33EC22
:0703310033FC5002B2D5229B
:10033800EC30E7100FBF000C0EBE00080DBD000426
:100348000BEB6014A2D5EB13FCED92E7FD2274FFD2
:10035800FCFDFEFF22E480F8A2D574FF13FC7D802B
:03036800E480EF3F
:03000000020640B5
:0C064000787FE4F6D8FD758120020404E8
:10036B00C2D5EC30E709B2D5E4C39DFDE49CFCEEAD
:10037B0030E715B2D5E4C39FFFE49EFE1203AFC373
:10038B00E49DFDE49CFC80031203AF30D507C3E46E
:06039B009FFFE49EFE221C
:0E03A100C3E49FFFE49EFEE49DFDE49CFC226D
:1003AF00BC000BBE0029EF8DF084FFADF022E4CC32
:1003BF00F875F008EF2FFFEE33FEEC33FCEE9DECFB
:1003CF00984005FCEE9DFE0FD5F0E9E4CEFD22ED41
:1003DF00F8F5F0EE8420D21CFEADF075F008EF2F8B
:1003EF00FFED33FD4007985006D5F0F222C398FD7C
:0503FF000FD5F0EA2219
:00000001FF
