:0C06D30054656D7065726174757265008D
:0D06C600C2A0D2A100D2A200C2A2AF802229
:10069E00C2A2A20092A0C2A10085178000D2A20021
:0606AE00C2A2000206C614
:0A06EB00C200EF4408F51702069E56
:0A06F500C200EF4404F51702069E50
:10062400C2A2C20075173812069EC200751738128E
:10063400069E7F041206EBC20075170112069E7F08
:04064400020206F5B3
:10066800AE07ED700AC200EE4480F51712069EBD73
:0F067800010CC200EE24C04480F51712069E222A
:10068700120360FF6010D200F51712069E7401294D
:07069700F9E43AFA80EA22BF
:0A0424008E218F228B238A24892564
:10042E007C277D1012038B7C007D0A12038B8D2797
:10043E00AE21AF227C037DE812038B7C007D0A1275
:10044E00038B8D28AE21AF227C007D6412038B7C42
:10045E00007D0A12038B8D29AE21AF227C007D0A0E
:10046E0012038B7C007D0A12038B8D2AAE21AF22E4
:10047E007C007D0A12038B8D2BE4FF74272FF874FA
:10048E003026F60FBF05F4E4FF74272FF8E6B430DC
:10049E000BD3EF6480948350030F80EDC3740595E6
:1004AE0026FEC3EF6480F8EE6480985019AB23AA41
:1004BE0024A925742012037974012525F525E43528
:1004CE0024F5240E80DCC3EF64809485501C7427C1
:1004DE002FF8E6AB23AA24A925120379740125254A
:1004EE00F525E43524F5240F80DCAB23AA24A925B9
:0404FE00E402037998
:10064800E4FDFCC3ED9FEC9E5015E4FBFA0BBB00E8
:0F065800010AEB64784A70F50DBD00010C80E4D7
:010667002270
:0405DF00AB07AA06B6
:1005E300E4F516FC7D0A1203E0ED2430F5157514CD
:1005F3002E7C007D0AAF03AE021203E07C007D0A6D
:100603001203E0ED2430F513AE02AF037C007D64EA
:100613001203E0EF2430F5127B007A007912020610
:01062300874F
:10050200120624C20075170112069EE4FDFF1206B0
:10051200687BFF7A0679D3120687E4FF12058F8E75
:10052200088F09AC08AD09EC1202A67B527AB879A1
:100532009E78401200FBE4FBFA79807844120204B0
:100542008F118E108D0F8C0E7F007E207D207C44BB
:10055200AB11AA10A90FA80E1200FB7B717A3D798C
:10056200A178C212000A8F0D8E0C8D0B8C0A7D01B0
:10057200E4FF120668AF0DAE0CAD0BAC0A1202DF3F
:0D0582001205DF7F327E00120648020505DB
:1006B400E4FDFCC3ED9FEC9E50070DBD00010C80D2
:0106C400F243
:0106C5002212
:10058F00E4FBFAC293C292FEEFA2E39291D293C21E
:10059F009325E0FF0EBE04F0E4FFD293C2930FBF8A
:1005AF0006F8D2927F197E001206B4C2921206B4D8
:1005BF00E4FDD290C293EB25E0FBEA33FA309005CD
:0F05CF000BBB00010AD2930DBD0AE7AE02AF03CA
:0105DE0022FA
:1000030002034BE86480F8E933E83360110460F0DD
:10001300ED33EC337009E8FCE9FDEAFEEBFF220463
:1000230060DED3EB9FEA9EE99DE8C2E78CF0C2F75E
:1000330095F0400CE8CCF8E9CDF9EACEFAEBCFFB2A
:1000430012031685D0F05804700320D5B3E804706A
:10005300075002B2D502035592D5EC0460F7E4CC05
:10006300C0E0C398F8603B94186008400DD0E0FBF3
:1000730002032DE4FBFAC9FC8028E830E406E4C956
:10008300FBE4CAFCE830E305E4C9CACBFCE8540747
:100093006010F8C3E913F9EA13FAEB13FBEC13FC52
:1000A300D8F130F52FC3E49CFCEF9BFFEE9AFEEDF5
:1000B30099FDD0E0FBEF4E4D4C701222DB0302039F
:1000C30052EC2CFCEF33FFEE33FEED33FDED30E766
:1000D300EB02032DEF2BFFEE3AFEED39FDD0E0FBF3
:1000E30050130BBB0003020355ED13FDEE13FEEF9C
:0800F30013FFEC13FC02032DC6
:1000FB00EC4D6011E8497017ED33EC3304600DE4FF
:10010B00FCFFFEFD22E933E8330470F802034B12C7
:10011B00031658046009E4CC2481500628500902C8
:10012B000355284003020352C0E0EB4A7044B980E8
:10013B0006D0E0FB020341EF4E701CBD8008EBFFC5
:10014B00EAFEE9FD80EBE98DF0A4FEE5F00201E4A7
:10015B00E9CDF9EAFEEBFFEF89F0A4FCE5F0CE89DF
:10016B00F0A42EFFE435F0CD89F0A42DFEE435F09C
:10017B008067EF4E7005BD80D780C3EF8BF0A4ACCA
:10018B00F0EE8BF0A42CFCE435F0F8EF8AF0A42C05
:10019B00E5F038FCE433CB8DF0A42CFCE5F03BF818
:1001AB00EE8AF0A42CFCE5F038F8E433CF89F0A408
:1001BB002CFCE5F038CF3400CE89F0A42FFFE5F00E
:1001CB003EFEE433C98DF0A42EFEE5F039CD8AF066
:1001DB00A42FFFE5F03EFEE43DFD33D0E0FB5007DE
:1001EB000BBB000F020355EC2CFCEF33FFEE33FE81
:0601FB00ED33FD02032DAF
:10020100020355EC5D046005E85904700302034BD9
:10021100120316580460F6EC4860F2EC7004FDFE1F
:10022100FF22C860DB2481C85009C39860025006D0
:100231000203529850CAF582E9294B4A7005AB82F4
:1002410002034175F0007C1A7880C3EF9BEE9AEDB2
:1002510099400DC3EF9BFFEE9AFEED99FDE842F048
:10026100DC23ACF0D0E0FFD0E0FED0E0FDAB82209B
:10027100E7101BEB60BAEC2CFCEF33FFEE33FEED25
:1002810033FD02032DE803F830E705C0F075F000F7
:10029100EF2FFFEE33FEED33FD40B830E7C280AA09
:1002A10075F020800E75F010800575F0087D007ED8
:1002B100007F003392D530D503120416EC33401081
:1002C100EF33FFEE33FEED33FDEC33FCD5F0ED22E1
:0E02D100E5F0247EA2D513CC92E7CDCEFF221D
:1002DF00EDD2E7CD33EC3392D524814006E4FFFE17
:1002EF00FDFC22FCE4CFCECDCC24E0501174FF8076
:1002FF00EDC3CC13CCCD13CDCE13CECF13CF047013
:07030F00F030D5DE020416F8
:10031600E9D2E7C933E833F892D5EDD2E7CD33EC2D
:0703260033FC5002B2D522A6
:10032D00EC30E7100FBF000C0EBE00080DBD000431
:10033D000BEB6014A2D5EB13FCED92E7FD2274FFDD
:10034D00FCFDFEFF22E480F8A2D574FF13FC7D8036
:03035D00E480EF4A
:030000000206DF16
:0C06DF00787FE4F6D8FD75813502050235
:10036000BB010689828A83E0225002E722BBFE029B
:09037000E32289828A83E49322CE
:10037900BB010689828A83F0225002F722BBFE0163
:02038900F3225D
:10038B00BC000BBE0029EF8DF084FFADF022E4CC56
:10039B00F875F008EF2FFFEE33FEEC33FCEE9DEC1F
:1003AB00984005FCEE9DFE0FD5F0E9E4CEFD22ED65
:1003BB00F8F5F0EE8420D21CFEADF075F008EF2FAF
:1003CB00FFED33FD4007985006D5F0F222C398FDA0
:0503DB000FD5F0EA223D
:1003E000C2D5EC30E709B2D5E4C39DFDE49CFCEE38
:1003F00030E715B2D5E4C39FFFE49EFE12038BC322
:10040000E49DFDE49CFC800312038B30D507C3E41C
:060410009FFFE49EFE22A6
:0E041600C3E49FFFE49EFEE49DFDE49CFC22F7
:00000001FF
